:020000040000FA
:0400000084EF04F095
:08000800056ED8CF06F0E950A7
:10001000076EEA50086EE150096EE2500A6ED95040
:100020000B6EDA500C6EF350146EF450156EE050F7
:100030000D6E000100500F6E0150106E0250116ED7
:100040000350126E0450136E9DAC2AEF00F09EBC5C
:100050001BEF02F00F50006E1050016E1150026E37
:100060001250036E1350046E0D50E06E0D8E07504B
:10007000E96E0850EA6E0950E16E0A50E26E0B50CC
:10008000D96E0C50DA6E1450F36E1550F46E0550A4
:1000900006C0D8FF1000F2CF0EF0F29EF76AB00F44
:1000A000F66E000EF7220900F5500EBEF28E120019
:1000B0002C0F01068E0E006E70C001F06FC002F0B2
:1000C000036A015209E102C001F0026A080E005EF3
:1000D000015202E1006A08D0D89001BE04D0023675
:1000E00001360006F9D7019E00002BEF02F06F5099
:1000F000D8B461D0776E7350D8B45DD0772601E361
:1001000005D07F0E775E57E356E003D0810E772649
:1001100052E277C000F0016A026A036A70C07BF0A5
:100120007B8E71C07AF072C079F0180E776E786AA3
:1001300079A015D07650032605E3022A03E1012AAF
:10014000D8B4788E7550022603E3012AD8B4788E8D
:1001500074C071F0718E71500126D8B0788E7836E7
:100160000132023203327B327A327932D890772EE2
:10017000DED7010E00261FE201BE06D07B36033615
:1001800002360136000617E07BAE0BD0032A09E1E8
:10019000022A07E1012A05E1013202320332002A74
:1001A0000AE070C078F07450781A78AE02D0018EF0
:1001B00006D0019E04D0006A016A026A036A000048
:1001C0003CEF02F0800ED8B27A1A7F6A806B76C05C
:1001D0007EF07A507E1A7550D8B4DED07D6E7DC028
:1001E00000F07950D8B4E1D07D5ED8B482D001E27D
:1001F0003DD07AC083F0838F7BC082F07CC081F0D9
:10020000806BD89083338233813380337D2EF8D74F
:100210007EAE03D07F80DDD07F907D907F88EA6ABC
:10022000780EE96EE9D07F987EBE0AD07DA013D00B
:100230008333823381338033002AD8B4C5D00BD0C6
:1002400083BF0CD0D8908037813782378337000640
:10025000D8B4BAD0F5D77F8C6BD07F9C76C07EF0B7
:1002600076AE02D0838FA9D0839FA7D079C07DF0CE
:1002700079C000F075507D5E76C083F0838F77C0C3
:1002800082F078C081F0806BD890833382338133E1
:1002900080337D2EF8D77EAE03D07F829AD07F92B6
:1002A0007D907F8AEA6A7C0EE96EA6D07F9A7EBE38
:1002B0000AD07DA013D08333823381338033002A68
:1002C000D8B482D00BD083BF0CD0D8908037813780
:1002D000823783370006D8B477D0F5D77F8E28D001
:1002E0007F9E7AC07EF07AAE02D0838F66D0839FE5
:1002F00064D07AC083F0838F7BC082F07CC081F0B1
:100300007EAE04D0839F7F8464D07F94806B7D9089
:10031000EA6A780EE96E70D07EBE1CD076C07EF0A0
:100320007DA006D08333823381338033002A4CE0B2
:1003300080AF0BD0812B09E1822B07E1832B05E1F4
:10034000833382338133002A3FE07FBC86D77FBE70
:10035000C7D71CD0800E831B83AF04D03AD07AC09D
:100360007EF00AD076C07EF0835306E1825304E12A
:10037000815302E1006A21D083BF08D0D890803732
:10038000813782378337002EF7D71ED07EAE02D05A
:10039000838F13D0839F11D079C000F07AC083F08F
:1003A0007BC082F07CC081F008D075C000F076C0C0
:1003B00083F077C082F078C081F083C001F082C002
:1003C00002F081C003F034D0006A016A026A036A55
:1003D0002FD0806B811F821F831F801F802B05E120
:1003E000812B03E1822B01E1832B7FB015D77FB2F4
:1003F00056D77FB48AD7B3D7EF50812705E3822B36
:1004000003E1832BD8B47D80ED52EF50822703E3C4
:10041000832BD8B47D80ED52EF50EFBE01D0800A1F
:100420008327D8B07D807FB8FED67FBA3FD774D7F8
:10043000000058EF02F038C003F03750E96E38C0C2
:10044000EAFFECCF6EF0ED52EFCF6DF06EC070F0C2
:100450006DC06FF02FD603C072F002C071F001C002
:1004600070F000C06FF04CC076F04BC075F04AC021
:1004700074F049C073F03BD600C06FF001C070F05B
:1004800002C071F003C072F0EACF74F0E9CF73F0EC
:10049000D88203C078F002C077F001C076F000C0C7
:1004A00075F07C6A7B6A400E7A6E800E796E8AD611
:1004B00074C0EAFF73C0E9FF03C050F002C04FF000
:1004C00001C04EF000C04DF09E9C2AEF00F0EA6A99
:1004D000640EE96EEF500DE0400E016E006A002ED2
:1004E000FED7012EFBD7D90E006E002EFED7EF2EC1
:1004F000F3D7000C6B38F00B006E0F0E8314001056
:10050000836E00008380210E006E002EFED7839044
:10051000000CF00E956E83840000838000008350F1
:10052000006E00380F0B6B6E839000008380100EFE
:10053000006E002EFED700008350006E00380F0BB7
:100540006A6E8390000E956E6B38006EF00E00168A
:1005500000506A10016EAFEF02F08392DAD701C04B
:100560006AF001BEFBD768A0839268B08382000066
:1005700083940000839069386A6E0F0E6A166AC011
:100580006BF0B8DF69500F0B6A6E6AC06BF0B2DFB8
:10059000000C000E956E2D0E646E99DF839283948D
:1005A0008390020E6B6EA6DF516A515003080DE373
:1005B000036A515070DD526E686A52C069F0CDDF37
:1005C000050E646E84DF512AF0D7FAEF04F0652C33
:1005D00001D003D0400E666E01D0666A010E645CE5
:1005E000662666508009676E686A67C069F0B5DF85
:1005F0001AEF03F063500C0A05E0060A0BE0020A4A
:100600000EE012D0686A010E696EA7DF020E646EFA
:100610005EDF10D0010E646E020E656ED8D7686A78
:10062000100E696E9ADF06D0010E686E63C069F025
:1006300094DF00D0000C55C05EF056C05FF0606AD9
:1006400052AE02D05E8C5F06528E5150D8B49BD011
:100650007F0E515C55E3516E616A040E626ED89054
:100660005436533652366036622EF9D7040E515C3A
:1006700008E2030E515CD8A47CD00A0E605CD8A0BE
:1006800078D0030E515E612A33D9D8905436533650
:100690005236603618D9020E626ED89060325232ED
:1006A00053325432622EF9D723D9040E626ED89099
:1006B0005532563257325832622EF9D704D918D9EA
:1006C00057C058F056C057F055C056F0556AFBD881
:1006D0000FD956C058F055C057F0556A566AF3D82E
:1006E00060B6C4D7515205E1542A532A522A602ACF
:1006F00040D0D89054365336523660365106B6D76D
:10070000511E512A7F0E5126616A040E626ED890E6
:100710005436533652366036622EF9D7040E5126BF
:10072000050E515C32E3E4D8D89054365336523635
:100730006036D8905436533652366036C4D8D89086
:100740005436533652366036612A030E626ED890A4
:100750006032523253325432622EF9D7030E515E58
:1007600060A8DED7D89060325232533254325106EC
:10077000D7D7511E512A030E512661285F5ED8A09B
:100780005F6A010E03D0020E01D0000E5A6E5EBEEB
:1007900009D05FBE07D05F5205E0200E636E2ADFEE
:1007A0005F2EFBD75EAC03D02D0E636E23DF5EAEF3
:1007B00009D05FBE07D05F5205E0300E636E1ADFCE
:1007C0005F2EF9D75E9E5E9C5AA007D061C05AF09A
:1007D00061C05CF05E285C2626D05AA202D05E285A
:1007E000616E5E52D8B46DD02E0E636E03DF61C0B1
:1007F0005DF05D065E505D5C02E35EC05DF05D52E3
:1008000005E0300E636EF6DE5D2EFBD761C062F050
:100810005E28625ED8B075D051065E285C6E61506D
:100820005C5E5CC05AF060C059F0515005E05B6EF0
:10083000D89059325B2EFCD75C5043E0300E5924DF
:10084000636ED8DE5A5005E15E523BE02E0E636EB9
:10085000D1DE5A065C0635E0515005E05B6ED8905B
:1008600059365B2EFCD75950605E60C055F052C0BF
:1008700056F053C057F054C058F0D8905436533601
:1008800052366036D8905436533652366036585009
:10089000542605E3532A03E1522A01E1602A575006
:1008A000532603E3522A01E1602A56505226D8B05B
:1008B000602A55506026D8905436533652366036EA
:1008C000B2D700001ED05850542605E3532A03E146
:1008D000522A01E1602A5750532603E3522A01E1CC
:1008E000602A56505226D8B0602A55506026000C17
:1008F00060C055F052C056F053C057F054C058F085
:10090000000C000047EF05F0F86AD09E0D8EEA6AF1
:10091000E96AC180C182C184C186920E176E0F0E32
:10092000186E930E196E0F0E1A6E940E1B6E0F0E2C
:100930001C6E950E1D6E0F0E1E6E960E1F6E0F0E08
:10094000206E800E216E0F0E226E810E236E0F0E12
:10095000246E820E256E0F0E266E830E276E0F0EEE
:10096000286E840E296E0F0E2A6E890E2B6E0F0EC6
:100970002C6E8A0E2D6E0F0E2E6E8B0E2F6E0F0E9E
:10098000306E8C0E316E0F0E326E8D0E336E0F0E7A
:10099000346EC40E356E0F0E366EC30E376E0F0EEC
:1009A000386EC20E396E0F0E3A6EC10E3B6E0F0ED0
:1009B0003C6EC00E3D6E0F0E3E6EF20E3F6E0F0E81
:1009C000406EF10E416E0F0E426EF00E436E0F0E32
:1009D000446E9D0E456E0F0E466E810E476E0F0ED5
:1009E000486E770E496E400E4A6E300E4B6E0C0EFE
:1009F0004C6ECFD53950E96E3A50EA6EEF803950DF
:100A0000E96E3A50EA6EC30EEF14EF6E3B50E96E9A
:100A10003C50EA6EF00EEF140809EF6E1750E96EC5
:100A200018C0EAFF010EEF6E3D50E96E3E50EA6ECF
:100A3000EF8E3B50E96E3C50EA6EEF883B50E96E1A
:100A40003C50EA6EEF8A4550E96E4650EA6EEF8CF4
:100A50003F50E96E4050EA6EEF8E3F50E96E4050D5
:100A6000EA6EEF8C0C0E636EC5DD200E636EC2DD88
:100A700050C054F04FC053F04EC052F04DC051F032
:100A8000586A576A010E566E060E556ED4D5560E2C
:100A9000636EB0DD3950E96E3A50EA6EEF82140EA3
:080AA000646E15DDDFD70300D1
:020000040030CA
:0E00000000220F0E000181000FC00FE00F4024
:00000001FF
;PIC18F452
