:020000040000FA
:1000000031EF01F0F76A140FF66E000EF7220900C7
:10001000F55012002C0F0106EA6A270EE96EEF5028
:100020000DE0400E016E006A002EFED7012EFBD7B8
:10003000D90E006E002EFED7EF2EF3D7000C2E380F
:10004000F00B006E0F0E83140010836E000083808F
:10005000210E006E002EFED78390000CF00E956EE0
:10006000838400008380000083380F0B2E6E839002
:1000700000008380100E006E002EFED70000833833
:100080000F0B2D6E8390000E956E2E38006EF00EC5
:10009000001600502D10016E50EF00F08392DED755
:1000A00001C02DF001BEFBD72BA083922BB0838221
:1000B00000008394000083902C382D6E0F0E2D16B7
:1000C0002DC02EF0BCDF2C500F0B2D6E2DC02EF04E
:1000D000B6DF000C000E956E2D0E276E9DDF83920D
:1000E00083948390020E2E6EAADF266A26500308A0
:1000F0000DE3036A265086DF276E2B6A27C02CF09B
:10010000CDDF050E276E88DF262AF0D77EEF01F0BF
:10011000400E266E23C0E9FF24C0EAFFF80EEF145C
:100120000309EF6E23C0E9FF24C0EAFFEFCF00F020
:1001300000380F0B0E0A07E0030A08E0060A09E080
:100140000C0A0AE00CD0310E266E09D0340E266E51
:1001500006D0370E266E03D02A0E266E00D023C09E
:10016000E9FF24C0EAFFF80EEF140509EF6E23C083
:10017000E9FF24C0EAFFEFCF00F000380F0B0E0AB2
:1001800007E0030A08E0060A09E00C0A0AE00CD0BE
:10019000320E266E09D0350E266E06D0380E266E2B
:1001A00003D0300E266E00D023C0E9FF24C0EAFF42
:1001B000F80EEF140609EF6E23C0E9FF24C0EAFF32
:1001C000EFCF00F000380F0B0E0A07E0030A08E03B
:1001D000060A09E00C0A0AE00CD0330E266E09D09C
:1001E000360E266E06D0390E266E03D0230E266EEE
:1001F00000D026C001F097EF01F0282C01D003D0E9
:10020000400E296E01D0296A010E275C292629504B
:1002100080092A6E2B6A2AC02CF040DF30EF01F0F3
:1002200026500C0A05E0060A0BE0020A0EE012D086
:100230002B6A010E2C6E32DF020E276EEDDE10D01F
:10024000010E276E020E286ED8D72B6A100E2C6E68
:1002500025DF06D0010E2B6E26C02CF01FDF00D04C
:10026000000CF86AD09EEA6AE96AC150C00B030923
:10027000C16E070EB46EB450A19C920E056E0F0EA7
:10028000066E930E076E0F0E086E940E096E0F0E1B
:100290000A6E800E0B6E0F0E0C6E810E0D6E0F0E21
:1002A0000E6E820E0F6E0F0E106EC40E116E0F0EBC
:1002B000126EC30E136E0F0E146EC20E156E0F0E5D
:1002C000166EC10E176E0F0E186EC00E196E0F0E41
:1002D0001A6EF20E1B6E0F0E1C6EF10E1D6E0F0EBF
:1002E0001E6EF00E1F6E0F0E206EF20E216E0F0EA0
:1002F000226E810E236E0F0E246EECD607C0E9FF2E
:1003000008C0EAFFF00EEF6E09C0E9FF0AC0EAFF7D
:10031000EF6A17C0E9FF18C0EAFFF00EEF140F09EB
:10032000EF6E1DC0E9FF1EC0EAFFEF9EF1D601C0CF
:1003300025F02550400809E00C0E266E71DF200ED6
:10034000266E6EDF25C026F06BDF0A0E276E64DE98
:04035000EDD70300E2
:020000040030CA
:0E00000000C20F1E008781000FC00FE00F40EE
:00000001FF
;PIC18F4520
