:020000040000FA
:04000000BCEF06F05B
:08000800056ED8CF06F0E950A7
:10001000076EEA50086EE150096EE2500A6ED95040
:100020000B6EDA500C6EF350146EF450156EE050F7
:100030000D6E000100500F6E0150106E0250116ED7
:100040000350126E0450136E9DAC2AEF00F09EBC5C
:1000500037EF02F00F50006E1050016E1150026E1B
:100060001250036E1350046E0D50E06E0D8E07504B
:10007000E96E0850EA6E0950E16E0A50E26E0B50CC
:10008000D96E0C50DA6E1450F36E1550F46E0550A4
:1000900006C0D8FF1000F2CF0EF0F29EF76AB00F44
:1000A000F66E000EF7220900F5500EBEF28E120019
:1000B0002C0F0106F2CF0EF0F29EF76ACE0FF66E0D
:1000C000000EF7220900F5500EBEF28E12000C56FB
:1000D0003A2530332E346656204B503A25630A5069
:1000E0003A2564252509443A2564094E3A256400D9
:1000F0008E0E006E81C001F080C002F0036A0152D2
:1001000009E102C001F0026A080E005E015202E13C
:10011000006A08D0D89001BE04D00236013600062D
:10012000F9D7019E000047EF02F08051D8B461D0AA
:10013000886F8451D8B45DD0882701E305D07F0E45
:10014000885F57E356E003D0810E882752E288C0CB
:1001500000F0016A026A036A81C08CF08C8F82C051
:100160008BF083C08AF0180E886F896B8AA115D036
:100170008751032605E3022A03E1012AD8B4898FB7
:100180008651022603E3012AD8B4898F85C082F004
:10019000828F82510126D8B0898F8937013202328D
:1001A00003328C338B338A33D890882FDED7010EFD
:1001B00000261FE201BE06D08C3703360236013618
:1001C000000617E08CAF0BD0032A09E1022A07E1F1
:1001D000012A05E1013202320332002A0AE081C01D
:1001E00089F08551891B89AF02D0018E06D0019E0E
:1001F00004D0006A016A026A036A0000000C800EE3
:10020000D8B28B1B906B916B87C08FF08B518F1B7B
:100210008651D8B4DED08E6F8EC000F08A51D8B42B
:10022000E1D08E5FD8B482D001E23DD08BC094F093
:10023000948F8CC093F08DC092F0916BD8909433D2
:100240009333923391338E2FF8D78FAF03D09081B1
:10025000DDD090918E919089EA6A890EE96EE9D09D
:1002600090998FBF0AD08EA113D0943393339233D9
:100270009133002AD8B4C5D00BD094BF0CD0D890FD
:1002800091379237933794370006D8B4BAD0F5D760
:10029000908D6BD0909D87C08FF087AF02D0948FE8
:1002A000A9D0949FA7D08AC08EF08AC000F0865152
:1002B0008E5F87C094F0948F88C093F089C092F0CD
:1002C000916BD89094339333923391338E2FF8D728
:1002D0008FAF03D090839AD090938E91908BEA6ADF
:1002E0008D0EE96EA6D0909B8FBF0AD08EA113D041
:1002F0009433933392339133002AD8B482D00BD005
:1003000094BF0CD0D890913792379337943700062A
:10031000D8B477D0F5D7908F28D0909F8BC08FF02E
:100320008BAF02D0948F66D0949F64D08BC094F032
:10033000948F8CC093F08DC092F08FAF04D0949FB7
:10034000908564D09095916B8E91EA6A890EE96EE2
:1003500070D08FBF1CD087C08FF08EA106D0943391
:10036000933392339133002A4CE091AF0BD0922B10
:1003700009E1932B07E1942B05E1943393339233F6
:10038000002A3FE090BD86D790BFC7D71CD0800E13
:10039000941B94AF04D03AD08BC08FF00AD087C0A2
:1003A0008FF0945306E1935304E1925302E1006A03
:1003B00021D094BF08D0D890913792379337943793
:1003C000002EF7D71ED08FAF02D0948F13D0949FFA
:1003D00011D08AC000F08BC094F08CC093F08DC017
:1003E00092F008D086C000F087C094F088C093F0E7
:1003F00089C092F094C001F093C002F092C003F063
:1004000034D0006A016A026A036A2FD0916B921F8E
:10041000931F941F911F912B05E1922B03E1932BC6
:1004200001E1942B90B115D790B356D790B58AD7E8
:10043000B3D7EF50922705E3932B03E1942BD8B465
:100440008E81ED52EF50932703E3942BD8B48E8125
:10045000ED52EF50EFBE01D0800A9427D8B08E81C4
:1004600090B9FED690BB3FD774D70000000C39C0BE
:1004700003F03850E96E39C0EAFFECCF7FF0ED525F
:10048000EFCF7EF07FC081F07EC080F031D603C018
:1004900083F002C082F001C081F000C080F055C03E
:1004A00087F054C086F053C085F052C084F03DDE22
:1004B00000C080F001C081F002C082F003C083F070
:1004C000EACF85F0E9CF84F0D88203C089F002C07A
:1004D00088F001C087F000C086F08D6B8C6B400EF9
:1004E0008B6F800E8A6F8BDE85C0EAFF84C0E9FFC8
:1004F00003C059F002C058F001C057F000C056F0D8
:100500009E9C2AEF00F0EA6A750EE96EEF500DE04E
:10051000400E016E006A002EFED7012EFBD7D90EC9
:10052000006E002EFED7EF2EF3D7000C7C38F00BB8
:10053000006E0F0E83140010836E00008380210E66
:10054000006E002EFED78390000CF00E956E838413
:100550000000838000008350006E00380F0B7C6E1B
:10056000839000008380100E006E002EFED70000E6
:100570008350006E00380F0B7B6E8390000E956EDB
:100580007C38006EF00E001600507B10016ECBEF31
:1005900002F08392DAD701C07BF001BEFBD779A0CD
:1005A000839279B0838200008394000083907A382C
:1005B0007B6E0F0E7B167BC07CF0B8DF7A500F0B82
:1005C0007B6E7BC07CF0B2DF000C000E956E2D0EB2
:1005D000756E99DF839283948390020E7C6EA6DF02
:1005E000626A625003080DE3036A625054DD636E71
:1005F000796A63C07AF0CDDF050E756E84DF622AFA
:10060000F0D744EF07F0400E626E4850E96E495053
:10061000EA6EF80EEF140309EF6E4850E96E495088
:10062000EA6EEF50006E00380F0B0E0A07E0030A67
:1006300008E0060A09E00C0A0AE00CD0310E626EEE
:1006400009D0340E626E06D0370E626E03D02A0EC9
:10065000626E00D04850E96E4950EA6EF80EEF1411
:100660000509EF6E4850E96E4950EA6EEF50006E92
:1006700000380F0B0E0A07E0030A08E0060A09E03B
:100680000C0A0AE00CD0320E626E09D0350E626E92
:1006900006D0380E626E03D0300E626E00D0485025
:1006A000E96E4950EA6EF80EEF140609EF6E4850F5
:1006B000E96E4950EA6EEF50006E00380F0B0E0ADB
:1006C00007E0030A08E0060A09E00C0A0AE00CD079
:1006D000330E626E09D0360E626E06D0390E626E2F
:1006E00003D0230E626E00D06250016E9BEF07F0C4
:1006F000646A300E625C646E645009080FE36350F4
:10070000090808E363500A0DF35064266450016E33
:1007100008D003D06450016E04D003D0000E016EE7
:1007200000D0A6EF07F06A50D8B4A6D0766E6E500F
:10073000D8B4A2D0765E01E205D07F0E7626D8B07E
:100740009BD006D0810E765ED8A096D0D8B494D037
:1007500076C000F0016A026A036A756A6BC074F0C1
:10076000748E6CC073F06DC072F0190E766E71509D
:10077000725E0DE2010E735E0AE2745E08E2755E5F
:1007800006E2752A742A732A7150722628D0705096
:10079000735E12E2010E745E0FE2755E0DE2752A61
:1007A000742A705073267150722619E3732A17E168
:1007B000742A15E1752A13D06F508009745E0EE219
:1007C000010E755E0BE2752A6F5080097426705019
:1007D0007326E9E3742AE7E1752AE5D70380762ECC
:1007E00001D00BD0D8907236733674367536D890E7
:1007F0000336023601367736BAD777A006D0D890BE
:10080000013202320332773202D0000635E077BE81
:100810001ED0D89072367336743675367150725E4B
:1008200007E2010E735E04E2745E02E2755E1AE393
:100830007050735E05E2010E745E02E2755E12E3B3
:100840006F508009745E03E2010E755E0BE3032AAC
:1008500009E1022A07E1012A05E1002A0DE001323F
:10086000023203326BC076F06F50761A76AE02D049
:10087000018E06D0019E04D0006A016A026A036AF2
:10088000000090EF04F08E0E006E6E50005E6FC0A0
:1008900002F070C001F0028E005209E0D8900252BE
:1008A00002E1015204E002320132002EF7D76FAEAE
:1008B00005D0011E021E012AD8B4022A0000B7EF9B
:1008C00004F0D892176AF2BE178EF29E65C089F0C6
:1008D00064C088F063C087F062C086F08D6B8C6B5B
:1008E000400E8B6F800E8A6F8ADC17BEF28E00C0BE
:1008F00066F001C067F002C068F003C069F003C091
:100900006DF002C06CF001C06BF000C06AF04DC029
:1009100071F04CC070F04BC06FF04AC06EF003D75E
:1009200000C06AF001C06BF002C06CF003C06DF053
:10093000176AF2BE178EF29E03C083F002C082F0E7
:1009400001C081F000C080F0876B866B480E856F18
:10095000850E846F95EC00F017BEF28E03C071F027
:1009600002C070F001C06FF000C06EF08CD7015073
:10097000B3EF07F0646A6250635C04E26350625C48
:10098000646E03D06250635C646E6450016EBAEFB3
:1009900007F0762C01D003D0400E776E01D0776A35
:1009A000010E755C772677508009786E796A78C079
:1009B0007AF0EFDDFCEF04F074500C0A05E0060A53
:1009C0000BE0020A0EE012D0796A010E7A6EE1DDC8
:1009D000020E756E98DD10D0010E756E020E766EE9
:1009E000D8D7796A100E7A6ED4DD06D0010E796EF2
:1009F00074C07AF0CEDD00D0000C66C06FF067C026
:100A000070F0716A63AE02D06F8C7006638E6250B4
:100A1000D8B49BD07F0E625C55E3626E726A040E9E
:100A2000736ED8906536643663367136732EF9D797
:100A3000040E625C08E2030E625CD8A47CD00A0E4D
:100A4000715CD8A078D0030E625E722A33D9D89038
:100A5000653664366336713618D9020E736ED890D7
:100A60007132633264326532732EF9D723D9040EA2
:100A7000736ED8906632673268326932732EF9D756
:100A800004D918D968C069F067C068F066C067F01B
:100A9000666AFBD80FD967C069F066C068F0666AFD
:100AA000676AF3D871B6C4D7625205E1652A642A31
:100AB000632A712A40D0D890653664366336713621
:100AC0006206B6D7621E622A7F0E6226726A040E22
:100AD000736ED8906536643663367136732EF9D7E7
:100AE000040E6226050E625C32E3E4D8D8906536C7
:100AF000643663367136D89065366436633671363F
:100B0000C4D8D8906536643663367136722A030EBF
:100B1000736ED8907132633264326532732EF9D7B6
:100B2000030E625E71A8DED7D890713263326432F0
:100B300065326206D7D7621E622A030E62267228C9
:100B4000705ED8A0706A010E03D0020E01D0000EB4
:100B50006B6E6FBE09D070BE07D0705205E0200EDC
:100B6000746E2ADF702EFBD76FAC03D02D0E746E1F
:100B700023DF6FAE09D070BE07D0705205E0300E93
:100B8000746E1ADF702EF9D76F9E6F9C6BA007D022
:100B900072C06BF072C06DF06F286D2626D06BA20C
:100BA00002D06F28726E6F52D8B46DD02E0E746E54
:100BB00003DF72C06EF06E066F506E5C02E36FC0B2
:100BC0006EF06E5205E0300E746EF6DE6E2EFBD7C0
:100BD00072C073F06F28735ED8B075D062066F284C
:100BE0006D6E72506D5E6DC06BF071C06AF06250D8
:100BF00005E06C6ED8906A326C2EFCD76D5043E0E5
:100C0000300E6A24746ED8DE6B5005E16F523BE003
:100C10002E0E746ED1DE6B066D0635E0625005E077
:100C20006C6ED8906A366C2EFCD76A50715E71C0BB
:100C300066F063C067F064C068F065C069F0D89082
:100C40006536643663367136D890653664366336F9
:100C500071366950652605E3642A03E1632A01E1E0
:100C6000712A6850642603E3632A01E1712A675000
:100C70006326D8B0712A66507126D89065366436DE
:100C800063367136B2D700001ED06950652605E381
:100C9000642A03E1632A01E1712A6850642603E3B0
:100CA000632A01E1712A67506326D8B0712A665021
:100CB0007126000C71C066F063C067F064C068F014
:100CC00065C069F0000C0000D4EF07F06650016ABF
:100CD000655C03E26550006E0CD0006A080E676E1A
:100CE000653600366650005CD8B0006E0136672E5F
:100CF000F7D7000C63C000F063BE04D064A40CD02E
:100D0000200E05D0001E002A00C063F02D0E746E68
:100D100053DE100E64A6646E015063C065F0640E6D
:100D2000666ED4DF00C063F00150300E07E164B09E
:100D30000BD064B609D064B8200E02D064966498D3
:100D4000012601C074F038DE63C065F00A0E666EDD
:100D5000BDDF00C063F00150300E04E164B606D080
:100D600064B8200E012601C074F026DE300E632622
:100D700063C074F021DE000CF86AD09E0D8EEA6A22
:100D8000E96AC180C182C184C186920E186E0F0EBD
:100D9000196E930E1A6E0F0E1B6E940E1C6E0F0EB4
:100DA0001D6E950E1E6E0F0E1F6E960E206E0F0E90
:100DB000216E800E226E0F0E236E810E246E0F0E9A
:100DC000256E820E266E0F0E276E830E286E0F0E76
:100DD000296E840E2A6E0F0E2B6E890E2C6E0F0E4E
:100DE0002D6E8A0E2E6E0F0E2F6E8B0E306E0F0E26
:100DF000316E8C0E326E0F0E336E8D0E346E0F0E02
:100E0000356EC40E366E0F0E376EC30E386E0F0E73
:100E1000396EC20E3A6E0F0E3B6EC10E3C6E0F0E57
:100E20003D6EC00E3E6E0F0E3F6EF20E406E0F0E08
:100E3000416EF10E426E0F0E436EF00E446E0F0EB9
:100E4000456E9D0E466E0F0E476E810E486E0F0E5C
:100E5000496E810E4A6E400E4B6E4C6A4D6A880E8A
:100E60004E6E7F0E4F6EC00E506E516A770E526EF0
:100E7000400E536E300E546E0C0E556E5D6A5E6AF7
:100E80005F6A606AE5EF02F01850E96E19C0EAFF88
:100E9000010EEF6E1A50E96E1BC0EAFFF00EEF6E06
:100EA0001C50E96E1DC0EAFFEF6A3A50E96E3B50F4
:100EB000EA6EEF803A50E96E3B50EA6EC30EEF14D3
:100EC000EF6E3C50E96E3D50EA6EF00EEF140809EB
:100ED000EF6E3E50E96E3F50EA6EEF8E3C50E96E89
:100EE0003D50EA6EEF883C50E96E3D50EA6EEF8A65
:100EF0003C50E96E3D50EA6EF00EEF140F09EF6EB4
:100F00004650E96E4750EA6EEF8C4050E96E415012
:100F1000EA6EEF8E4050E96E4150EA6EEF8C42501F
:100F2000E96E4350EA6EEF9E3A50E96E3B50EA6E2E
:100F3000EF8203EF03F001C061F0615040080AE066
:100F400061C062F05EC063F078EF03F001C05FF053
:100F50005FC05EF059C065F058C064F057C063F0E0
:100F600056C062F0AED401C05DF05DC062F05FC0FB
:100F700063F000D501C060F00C0E746E1DDD560EDE
:100F8000746E1ADD3A0E746E17DD59C065F058C0E4
:100F900064F057C063F056C062F0696A686A010E77
:100FA000676E840E666E29D5090E626E62505AEC29
:100FB00000F0622A006E00C074F0FEDC0E0E625C6F
:100FC000F5E161C074F0F8DC0A0E746EF5DC500EC9
:100FD000746EF2DC3A0E746EEFDC5DC063F0180ED6
:100FE000646E88DE250E746EE7DC090E746EE4DC38
:100FF000440E746EE1DC3A0E746EDEDC60C063F0A9
:10100000180E646E77DE090E746ED6DC4E0E746EAA
:10101000D3DC3A0E746ED0DC5FC063F0180E646EE1
:1010200069DE140E756E83EC02F07ED7000E016E41
:021030000300BB
:020000040030CA
:0E00000000220F0E000181000FC00FE00F4024
:00000001FF
;PIC18F452
