:020000040000FA
:04000000B5EF06F062
:08000800056ED8CF06F0E950A7
:10001000076EEA50086EE150096EE2500A6ED95040
:100020000B6EDA500C6EF350146EF450156EE050F7
:100030000D6E000100500F6E0150106E0250116ED7
:100040000350126E0450136E9DAC2AEF00F09EBC5C
:1000500042EF02F00F50006E1050016E1150026E10
:100060001250036E1350046E0D50E06E0D8E07504B
:10007000E96E0850EA6E0950E16E0A50E26E0B50CC
:10008000D96E0C50DA6E1450F36E1550F46E0550A4
:1000900006C0D8FF1000F2CF0EF0F29EF76AB00F44
:1000A000F66E000EF7220900F5500EBEF28E120019
:1000B0002C0F0106F2CF0EF0F29EF76ACE0FF66E0D
:1000C000000EF7220900F5500EBEF28E12000C56FB
:1000D0003A2530332E346656204B503A25630A5069
:1000E0003A25642569008E0E006E78C001F077C055
:1000F00002F0036A015209E102C001F0026A080E2F
:10010000005E015202E1006A08D0D89001BE04D01E
:10011000023601360006F9D7019E000052EF02F0C8
:100120007750D8B471D0006E7B50D8B46DD0002613
:1001300004E3810E002668E204D07F0E005E64E3D3
:1001400063E078C07FF07C507F1A788E7C8E7A5086
:100150007E02F4CF81F079507D02F4CF03F0F3CF2B
:1001600080F07E02F3508127F4508023000E03229A
:100170007A507D02F3508127F4508023000E026AEA
:100180000322022278507E02F3508027F45003228B
:10019000000E022278507D02F3500326F450022212
:1001A000000E016A01227A507C02F3508027F4503D
:1001B0000322000E0222012279507C02F350032612
:1001C000F4500222000E012278507C02F3500226E5
:1001D000F4500122002A01BE05D0803703360236D2
:1001E00001360006000E80AF0AD0032A0222012247
:1001F000015005E1025003E1035001E1002A7FBEF6
:10020000018E7FAE019E04D0006A016A026A036A11
:100210000000000C800ED8B2821B876B886B7EC0FA
:1002200086F08251861B7D50D8B4DED0856F85C0A4
:1002300000F08151D8B4E1D0855FD8B482D001E21A
:100240003DD082C08BF08B8F83C08AF084C089F050
:10025000886BD8908B338A3389338833852FF8D7CE
:1002600086AF03D08781DDD0879185918789EA6A3F
:10027000800EE96EE9D0879986BF0AD085A113D098
:100280008B338A3389338833002AD8B4C5D00BD056
:100290008BBF0CD0D890883789378A378B370006C8
:1002A000D8B4BAD0F5D7878D6BD0879D7EC086F045
:1002B0007EAE02D08B8FA9D08B9FA7D081C085F056
:1002C00081C000F07D50855F7EC08BF08B8F7FC03A
:1002D0008AF080C089F0886BD8908B338A33893359
:1002E0008833852FF8D786AF03D087839AD087933A
:1002F0008591878BEA6A840EE96EA6D0879B86BFBC
:100300000AD085A113D08B338A3389338833002AEE
:10031000D8B482D00BD08BBF0CD0D8908837893717
:100320008A378B370006D8B477D0F5D7878F28D097
:10033000879F82C086F082AF02D08B8F66D08B9F62
:1003400064D082C08BF08B8F83C08AF084C089F028
:1003500086AF04D08B9F878564D08795886B859105
:10036000EA6A800EE96E70D086BF1CD07EC086F02F
:1003700085A106D08B338A3389338833002A4CE039
:1003800088AF0BD0892B09E18A2B07E18B2B05E184
:100390008B338A338933002A3FE087BD86D787BFF6
:1003A000C7D71CD0800E8B1B8BAF04D03AD082C035
:1003B00086F00AD07EC086F08B5306E18A5304E1B2
:1003C000895302E1006A21D08BBF08D0D8908837CA
:1003D00089378A378B37002EF7D71ED086AF02D0E9
:1003E0008B8F13D08B9F11D081C000F082C08BF017
:1003F00083C08AF084C089F008D07DC000F07EC040
:100400008BF07FC08AF080C089F08BC001F08AC079
:1004100002F089C003F034D0006A016A026A036AFC
:100420002FD0886B891F8A1F8B1F881F882B05E19F
:10043000892B03E18A2B01E18B2B87B115D787B379
:1004400056D787B58AD7B3D7EF50892705E38A2BCC
:1004500003E18B2BD8B48581ED52EF508A2703E35B
:100460008B2BD8B48581ED52EF50EFBE01D0800ABE
:100470008B27D8B0858187B9FED687BB3FD774D785
:100480000000000C39C003F038C0E9FF39C0EAFFB2
:10049000ECCF76F0ED52EFCF75F076C078F075C006
:1004A00077F021D603C07AF002C079F001C078F06D
:1004B00000C077F051C07EF050C07DF04FC07CF09E
:1004C0004EC07BF02DDE00C077F001C078F002C096
:1004D00079F003C07AF0EACF7CF0E9CF7BF0D882E4
:1004E00003C080F002C07FF001C07EF000C07DF04C
:1004F000846B836B400E826F800E816F8BDE7CC0BD
:10050000EAFF7BC0E9FF03C055F002C054F001C010
:1005100053F000C052F09E9C2AEF00F0EA6A6C0E85
:10052000E96EEF500DE0400E016E006A002EFED71E
:10053000012EFBD7D90E006E002EFED7EF2EF3D77B
:10054000000C7338F00B006E0F0E83140010836ED6
:1005500000008380210E006E002EFED78390000CD9
:10056000F00E956E838400008380000083380F0BAB
:10057000736E839000008380100E006E002EFED7F5
:10058000000083380F0B726E8390000E956E7338E7
:10059000006EF00E001600507210016ED2EF02F0E5
:1005A0008392DED701C072F001BEFBD770A08392A8
:1005B00070B0838200008394000083907138726E63
:1005C0000F0E721672C073F0BCDF71500F0B726E9B
:1005D00072C073F0B6DF000C000E956E2D0E6C6EBF
:1005E0009DDF839283948390020E736EAADF596A13
:1005F000595003080DE3036A59504DDD5A6E706A75
:100600005AC071F0CDDF050E6C6E88DF592AF0D725
:1006100038EF07F0200E596E48C0E9FF49C0EAFFE5
:10062000F80EEF140309EF6E48C0E9FF49C0EAFF76
:10063000EFCF00F000380F0B0E0A07E0030A08E0C6
:10064000060A09E00C0A0AE00CD0310E596E09D0F6
:10065000340E596E06D0370E596E03D02A0E596EDD
:1006600000D048C0E9FF49C0EAFFF80EEF140509C1
:10067000EF6E48C0E9FF49C0EAFFEFCF00F0003855
:100680000F0B0E0A07E0030A08E0060A09E00C0A4D
:100690000AE00CD0320E596E09D0350E596E06D0D4
:1006A000380E596E03D0300E596E00D048C0E9FFA5
:1006B00049C0EAFFF80EEF140609EF6E48C0E9FFE3
:1006C00049C0EAFFEFCF00F000380F0B0E0A07E039
:1006D000030A08E0060A09E00C0A0AE00CD0330E0F
:1006E000596E09D0360E596E06D0390E596E03D0A8
:1006F000230E596E00D059C001F08FEF07F0615002
:10070000D8B4A6D06D6E6550D8B4A2D06D5E01E2AB
:1007100005D07F0E6D26D8B09BD006D0810E6D5EC1
:10072000D8A096D0D8B494D06DC000F0016A026A07
:10073000036A6C6A62C06BF06B8E63C06AF064C05F
:1007400069F0190E6D6E6850695E0DE2010E6A5E09
:100750000AE26B5E08E26C5E06E26C2A6B2A6A2A89
:100760006850692628D067506A5E12E2010E6B5EFF
:100770000FE26C5E0DE26C2A6B2A67506A266850A5
:10078000692619E36A2A17E16B2A15E16C2A13D04E
:10079000665080096B5E0EE2010E6C5E0BE26C2A05
:1007A000665080096B2667506A26E9E36B2AE7E109
:1007B0006C2AE5D703806D2E01D00BD0D890693616
:1007C0006A366B366C36D8900336023601366E3692
:1007D000BAD76EA006D0D8900132023203326E3200
:1007E00002D0000635E06EBE1ED0D89069366A365B
:1007F0006B366C366850695E07E2010E6A5E04E291
:100800006B5E02E26C5E1AE367506A5E05E2010EFF
:100810006B5E02E26C5E12E3665080096B5E03E27F
:10082000010E6C5E0BE3032A09E1022A07E1012AAB
:1008300005E1002A0DE001320232033262C06DF0A0
:1008400066506D1A6DAE02D0018E06D0019E04D0A6
:10085000006A016A026A036A00007CEF04F08E0EEF
:10086000006E6550005E66C002F067C001F0028E47
:10087000005209E0D890025202E1015204E0023233
:100880000132002EF7D766AE05D0011E021E012AE6
:10089000D8B4022A0000A3EF04F0D892176AF2BE7F
:1008A000178EF29E5CC080F05BC07FF05AC07EF075
:1008B00059C07DF0846B836B400E826F800E816F18
:1008C000A9DC17BEF28E00C05DF001C05EF002C070
:1008D0005FF003C060F003C064F002C063F001C0C9
:1008E00062F000C061F04DC068F04CC067F04BC0D2
:1008F00066F04AC065F003D700C061F001C062F045
:1009000002C063F003C064F0176AF2BE178EF29E55
:1009100003C07AF002C079F001C078F000C077F02F
:100920007E6A7D6A480E7C6E850E7B6E90EC00F0D0
:1009300017BEF28E03C068F002C067F001C066F017
:1009400000C065F08CD701509AEF07F0300E595C6B
:100950005B6E5AC05CF05B505A265AC001F0A4EF9F
:1009600007F06D2C01D003D0400E6E6E01D06E6A80
:10097000010E6C5C6E266E5080096F6E706A6FC0DF
:1009800071F00EDEE4EF04F06B500C0A05E0060A8D
:100990000BE0020A0EE012D0706A010E716E00DEEA
:1009A000020E6C6EBBDD10D0010E6C6E020E6D6E11
:1009B000D8D7706A100E716EF3DD06D0010E706E1E
:1009C0006BC071F0EDDD00D0000C5DC066F05EC064
:1009D00067F0686A5AAE02D0668C67065A8E595024
:1009E000D8B49BD07F0E595C55E3596E696A040EEA
:1009F0006A6ED8905C365B365A3668366A2EF9D7FE
:100A0000040E595C08E2030E595CD8A47CD00A0E8F
:100A1000685CD8A078D0030E595E692A33D9D89083
:100A20005C365B365A36683618D9020E6A6ED89034
:100A300068325A325B325C326A2EF9D723D9040EFF
:100A40006A6ED8905D325E325F3260326A2EF9D7BC
:100A500004D918D95FC060F05EC05FF05DC05EF081
:100A60005D6AFBD80FD95EC060F05DC05FF05D6A63
:100A70005E6AF3D868B6C4D7595205E15C2A5B2A8E
:100A80005A2A682A40D0D8905C365B365A36683687
:100A90005906B6D7591E592A7F0E5926696A040E7F
:100AA0006A6ED8905C365B365A3668366A2EF9D74D
:100AB000040E5926050E595C32E3E4D8D8905C3612
:100AC0005B365A366836D8905C365B365A366836AE
:100AD000C4D8D8905C365B365A366836692A030E1D
:100AE0006A6ED89068325A325B325C326A2EF9D71D
:100AF000030E595E68A8DED7D89068325A325B324E
:100B00005C325906D7D7591E592A030E592669282F
:100B1000675ED8A0676A010E03D0020E01D0000EF6
:100B2000626E66BE09D067BE07D0675205E0200E30
:100B30006B6E2ADF672EFBD766AC03D02D0E6B6E73
:100B400023DF66AE09D067BE07D0675205E0300EDE
:100B50006B6E1ADF672EF9D7669E669C62A007D07F
:100B600069C062F069C064F06628642626D062A27B
:100B700002D06628696E6652D8B46DD02E0E6B6EA8
:100B800003DF69C065F065066650655C02E366C018
:100B900065F0655205E0300E6B6EF6DE652EFBD714
:100BA00069C06AF066286A5ED8B075D059066628B2
:100BB000646E6950645E64C062F068C061F0595050
:100BC00005E0636ED8906132632EFCD7645043E039
:100BD000300E61246B6ED8DE625005E166523BE058
:100BE0002E0E6B6ED1DE6206640635E0595005E0CC
:100BF000636ED8906136632EFCD76150685E68C022
:100C00005DF05AC05EF05BC05FF05CC060F0D890F1
:100C10005C365B365A366836D8905C365B365A3668
:100C2000683660505C2605E35B2A03E15A2A01E13D
:100C3000682A5F505B2603E35A2A01E1682A5E5066
:100C40005A26D8B0682A5D506826D8905C365B3644
:100C50005A366836B2D700001ED060505C2605E3D5
:100C60005B2A03E15A2A01E1682A5F505B2603E30D
:100C70005A2A01E1682A5E505A26D8B0682A5D5087
:100C80006826000C68C05DF05AC05EF05BC05FF083
:100C90005CC060F0000C0000BEEF07F05E50016A1F
:100CA0005D5C03E25DC000F00CD0006A080E5F6E70
:100CB0005D3600365E50005CD8B0006E01365F2EA7
:100CC000F7D7000C5BAE04D05C8E5B1E5B2A07D0AE
:100CD0005CA405D0200E5CA8300E6B6E55DE5C9CCB
:100CE0005C9A5BC05DF0640E5E6ED8DF01501EE161
:100CF0005CBA1CD05CB625D05CBC06D05CB004D01D
:100D00005CB402D05CBE1DD05CA00AD05CBE19D021
:100D10005CBC06D05CB015D05CB402D05CBE11D017
:100D2000200E5CA8300E6B6E2FDE0BD05C8A5CAEA2
:100D300004D02D0E6B6E28DE5C9E300E01246B6E8F
:100D400023DE5CBC08D000C05DF00A0E5E6EA6DF3C
:100D500001505C8CCBD75CAE03D02D0E6B6E14DED5
:100D6000300E00246B6E10DE000CF86AD09E0D8EE3
:100D7000EA6AE96AC150C00B0309C16E070EB46E7E
:100D8000B450A19C920E186E0F0E196E930E1A6E2F
:100D90000F0E1B6E940E1C6E0F0E1D6E950E1E6EAA
:100DA0000F0E1F6E960E206E0F0E216E800E226E9D
:100DB0000F0E236E810E246E0F0E256E820E266E90
:100DC0000F0E276E830E286E0F0E296E840E2A6E6C
:100DD0000F0E2B6E890E2C6E0F0E2D6E8A0E2E6E40
:100DE0000F0E2F6E8B0E306E0F0E316E8C0E326E1C
:100DF0000F0E336E8D0E346E0F0E356EC40E366EC2
:100E00000F0E376EC30E386E0F0E396EC20E3A6E6D
:100E10000F0E3B6EC10E3C6E0F0E3D6EC00E3E6E51
:100E20000F0E3F6EF20E406E0F0E416EF10E426ECF
:100E30000F0E436EF00E446E0F0E456E9D0E466E05
:100E40000F0E476E810E486E0F0E496E810E4A6E70
:100E5000400E4B6E4C6A4D6A770E4E6E400E4F6ED2
:100E6000300E506E0C0E516E566A576AECEF02F05F
:100E70003AC0E9FF3BC0EAFFEF803AC0E9FF3BC060
:100E8000EAFFC30EEF14EF6E3CC0E9FF3DC0EAFF7E
:100E9000F00EEF140809EF6E18C0E9FF19C0EAFF61
:100EA000010EEF6E3EC0E9FF3FC0EAFFEF8E3CC08F
:100EB000E9FF3DC0EAFFEF883CC0E9FF3DC0EAFF23
:100EC000EF8A46C0E9FF47C0EAFFEF8C40C0E9FF68
:100ED00041C0EAFFEF8E40C0E9FF41C0EAFFEF8C5E
:100EE0001AC0E9FF1BC0EAFFF00EEF6E1CC0E9FF5D
:100EF0001DC0EAFFEF6A3CC0E9FF3DC0EAFFF00E0B
:100F0000EF140F09EF6E42C0E9FF43C0EAFFEF9E06
:100F10003AC0E9FF3BC0EAFFEF820AEF03F001C0ED
:100F200058F055C05CF054C05BF053C05AF052C04A
:100F300059F0B3D401C056F05850200849E058C0C9
:100F400059F057C05AF002D501C057F00C0E6B6E25
:100F50001BDD560E6B6E18DD3A0E6B6E15DD55C03F
:100F60005CF054C05BF053C05AF052C059F0606A54
:100F70005F6A010E5E6E840E5D6E27D5090E596E96
:100F800059505AEC00F0592A006E00C06BF0FCDC9E
:100F90000E0E595CF5E158C06BF0F6DC0A0E6B6E74
:100FA000F3DC500E6B6EF0DC3A0E6B6EEDDC56C06F
:100FB0005BF0180E5C6E86DE040E5A6E090E6B6EC8
:100FC000E3DC5A2EFBD757C05BF0180E5C6E7ADE5E
:0C0FD0000A0E6C6E8EEC02F09BD7030042
:020000040030CA
:0E00000000C20F1E008781000FC00FE00F40EE
:00000001FF
;PIC18F4520
