:020000040000FA
:04000000BBEF06F05C
:08000800056ED8CF06F0E950A7
:10001000076EEA50086EE150096EE2500A6ED95040
:100020000B6EDA500C6EF350146EF450156EE050F7
:100030000D6E000100500F6E0150106E0250116ED7
:100040000350126E0450136E9DAC2AEF00F09EBC5C
:1000500037EF02F00F50006E1050016E1150026E1B
:100060001250036E1350046E0D50E06E0D8E07504B
:10007000E96E0850EA6E0950E16E0A50E26E0B50CC
:10008000D96E0C50DA6E1450F36E1550F46E0550A4
:1000900006C0D8FF1000F2CF0EF0F29EF76AB00F44
:1000A000F66E000EF7220900F5500EBEF28E120019
:1000B0002C0F0106F2CF0EF0F29EF76ACE0FF66E0D
:1000C000000EF7220900F5500EBEF28E12000C56FB
:1000D0003A2530332E346656204B503A25630A5069
:1000E0003A2564252509443A2564094E3A256400D9
:1000F0008E0E006E7AC001F079C002F0036A0152E0
:1001000009E102C001F0026A080E005E015202E13C
:10011000006A08D0D89001BE04D00236013600062D
:10012000F9D7019E000047EF02F07950D8B461D0B2
:10013000816F7D50D8B45DD0812701E305D07F0E5B
:10014000815F57E356E003D0810E812752E281C0E0
:1001500000F0016A026A036A7AC085F0858F7BC06D
:1001600084F07CC083F0180E816F826B83A115D060
:100170008051032605E3022A03E1012AD8B4828FC5
:100180007F50022603E3012AD8B4828F7EC07BF021
:100190007B8E7B500126D8B0828F823701320232AB
:1001A0000332853384338333D890812FDED7010E19
:1001B00000261FE201BE06D085370336023601361F
:1001C000000617E085AF0BD0032A09E1022A07E1F8
:1001D000012A05E1013202320332002A0AE07AC024
:1001E00082F07E50821B82AF02D0018E06D0019E2B
:1001F00004D0006A016A026A036A0000000C800EE3
:10020000D8B2841B896B8A6B80C088F08451881BAC
:100210007F50D8B4DED0876F87C000F08351D8B448
:10022000E1D0875FD8B482D001E23DD084C08DF0A8
:100230008D8F85C08CF086C08BF08A6BD8908D3303
:100240008C338B338A33872FF8D788AF03D08981DB
:10025000DDD0899187918989EA6A820EE96EE9D0B9
:10026000899988BF0AD087A113D08D338C338B3303
:100270008A33002AD8B4C5D00BD08DBF0CD0D8900B
:100280008A378B378C378D370006D8B4BAD0F5D77C
:10029000898D6BD0899D80C088F080AF02D08D8F12
:1002A000A9D08D9FA7D083C087F083C000F07F5076
:1002B000875F80C08DF08D8F81C08CF082C08BF005
:1002C0008A6BD8908D338C338B338A33872FF8D752
:1002D00088AF03D089839AD089938791898BEA6A02
:1002E000860EE96EA6D0899B88BF0AD087A113D05D
:1002F0008D338C338B338A33002AD8B482D00BD021
:100300008DBF0CD0D8908A378B378C378D3700064D
:10031000D8B477D0F5D7898F28D0899F84C088F04A
:1003200084AF02D08D8F66D08D9F64D084C08DF055
:100330008D8F85C08CF086C08BF088AF04D08D9FE8
:10034000898564D089958A6B8791EA6A820EE96E05
:1003500070D088BF1CD080C088F087A106D08D33B4
:100360008C338B338A33002A4CE08AAF0BD08B2B33
:1003700009E18C2B07E18D2B05E18D338C338B3319
:10038000002A3FE089BD86D789BFC7D71CD0800E21
:100390008D1B8DAF04D03AD084C088F00AD080C0C5
:1003A00088F08D5306E18C5304E18B5302E1006A1F
:1003B00021D08DBF08D0D8908A378B378C378D37B6
:1003C000002EF7D71ED088AF02D08D8F13D08D9F0F
:1003D00011D083C000F084C08DF085C08CF086C041
:1003E0008BF008D07FC000F080C08DF081C08CF011
:1003F00082C08BF08DC001F08CC002F08BC003F086
:1004000034D0006A016A026A036A2FD08A6B8B1F9C
:100410008C1F8D1F8A1F8A2B05E18B2B03E18C2BF0
:1004200001E18D2B89B115D789B356D789B58AD704
:10043000B3D7EF508B2705E38C2B03E18D2BD8B47A
:100440008781ED52EF508C2703E38D2BD8B4878141
:10045000ED52EF50EFBE01D0800A8D27D8B08781D2
:1004600089B9FED689BB3FD774D70000000C39C0CC
:1004700003F03850E96E39C0EAFFECCF78F0ED5266
:10048000EFCF77F078C07AF077C079F031D603C03B
:100490007CF002C07BF001C07AF000C079F051C05E
:1004A00080F050C07FF04FC07EF04EC07DF03DDE4A
:1004B00000C079F001C07AF002C07BF003C07CF08C
:1004C000EACF7EF0E9CF7DF0D88203C082F002C08F
:1004D00081F001C080F000C07FF0866B856B400E1C
:1004E000846F800E836F8BDE7EC0EAFF7DC0E9FFE4
:1004F00003C055F002C054F001C053F000C052F0E8
:100500009E9C2AEF00F0EA6A6E0EE96EEF500DE055
:10051000400E016E006A002EFED7012EFBD7D90EC9
:10052000006E002EFED7EF2EF3D7000C7538F00BBF
:10053000006E0F0E83140010836E00008380210E66
:10054000006E002EFED78390000CF00E956E838413
:100550000000838000008350006E00380F0B756E22
:10056000839000008380100E006E002EFED70000E6
:100570008350006E00380F0B746E8390000E956EE2
:100580007538006EF00E001600507410016ECBEF3F
:1005900002F08392DAD701C074F001BEFBD772A0DB
:1005A000839272B08382000083940000839073383A
:1005B000746E0F0E741674C075F0B8DF73500F0BA5
:1005C000746E74C075F0B2DF000C000E956E2D0EC7
:1005D0006E6E99DF839283948390020E756EA6DF10
:1005E0005B6A5B5003080DE3036A5B5054DD5C6E8D
:1005F000726A5CC073F0CDDF050E6E6E84DF5B2A1D
:10060000F0D73CEF07F0200E5B6E4850E96E495082
:10061000EA6EF80EEF140309EF6E4850E96E495088
:10062000EA6EEF50006E00380F0B0E0A07E0030A67
:1006300008E0060A09E00C0A0AE00CD0310E5B6EF5
:1006400009D0340E5B6E06D0370E5B6E03D02A0ED7
:100650005B6E00D04850E96E4950EA6EF80EEF1418
:100660000509EF6E4850E96E4950EA6EEF50006E92
:1006700000380F0B0E0A07E0030A08E0060A09E03B
:100680000C0A0AE00CD0320E5B6E09D0350E5B6EA0
:1006900006D0380E5B6E03D0300E5B6E00D0485033
:1006A000E96E4950EA6EF80EEF140609EF6E4850F5
:1006B000E96E4950EA6EEF50006E00380F0B0E0ADB
:1006C00007E0030A08E0060A09E00C0A0AE00CD079
:1006D000330E5B6E09D0360E5B6E06D0390E5B6E44
:1006E00003D0230E5B6E00D05B50016E93EF07F0DA
:1006F0006350D8B4A6D06F6E6750D8B4A2D06F5EE6
:1007000001E205D07F0E6F26D8B09BD006D0810EB7
:100710006F5ED8A096D0D8B494D06FC000F0016AB4
:10072000026A036A6E6A64C06DF06D8E65C06CF01B
:1007300066C06BF0190E6F6E6A506B5E0DE2010EB3
:100740006C5E0AE26D5E08E26E5E06E26E2A6D2A5B
:100750006C2A6A506B2628D069506C5E12E2010E3A
:100760006D5E0FE26E5E0DE26E2A6D2A69506C2698
:100770006A506B2619E36C2A17E16D2A15E16E2A7F
:1007800013D0685080096D5E0EE2010E6E5E0BE2C2
:100790006E2A685080096D2669506C26E9E36D2A3F
:1007A000E7E16E2AE5D703806F2E01D00BD0D890F9
:1007B0006B366C366D366E36D8900336023601369F
:1007C0007036BAD770A006D0D89001320232033208
:1007D000703202D0000635E070BE1ED0D8906B3665
:1007E0006C366D366E366A506B5E07E2010E6C5EDB
:1007F00004E26D5E02E26E5E1AE369506C5E05E231
:10080000010E6D5E02E26E5E12E3685080096D5E5D
:1008100003E2010E6E5E0BE3032A09E1022A07E1FF
:10082000012A05E1002A0DE001320232033264C0E0
:100830006FF068506F1A6FAE02D0018E06D0019E25
:1008400004D0006A016A026A036A000075EF04F0CE
:100850008E0E006E6750005E68C002F069C001F045
:10086000028E005209E0D890025202E1015204E0E7
:1008700002320132002EF7D768AE05D0011E021EEB
:10088000012AD8B4022A00009BEF04F0D892176A1C
:10089000F2BE178EF29E5EC082F05DC081F05CC039
:1008A00080F05BC07FF0866B856B400E846F800E9E
:1008B000836FA5DC17BEF28E00C05FF001C060F050
:1008C00002C061F003C062F003C066F002C065F0D0
:1008D00001C064F000C063F04DC06AF04CC069F024
:1008E0004BC068F04AC067F003D700C063F001C096
:1008F00064F002C065F003C066F0176AF2BE178E9E
:10090000F29E03C07CF002C07BF001C07AF000C010
:1009100079F0806B7F6A480E7E6E850E7D6E05DCF9
:1009200017BEF28E03C06AF002C069F001C068F021
:1009300000C067F08DD701509EEF07F05D6A300E62
:100940005B5C5D6E5D5009080FE35C50090808E3CD
:100950005C500A0DF3505D265D50016E08D003D047
:100960005D50016E04D003D0000E016E00D0A8EFE0
:1009700007F05D6A5B505C5C04E25C505B5C5D6E42
:1009800003D05B505C5C5D6E5D50016EB1EF07F0B3
:100990006F2C01D003D0400E706E01D0706A010E32
:1009A0006E5C702670508009716E726A71C073F04F
:1009B000F0DDFBEF04F06D500C0A05E0060A0BE0D9
:1009C000020A0EE012D0726A010E736EE2DD020EB0
:1009D0006E6E99DD10D0010E6E6E020E6F6ED8D75E
:1009E000726A100E736ED5DD06D0010E726E6DC088
:1009F00073F0CFDD00D0000C5FC068F060C069F01C
:100A00006A6A5CAE02D0688C69065C8E5B50D8B4B2
:100A10009BD07F0E5B5C55E35B6E6B6A040E6C6E65
:100A2000D8905E365D365C366A366C2EF9D7040E89
:100A30005B5C08E2030E5B5CD8A47CD00A0E6A5CA7
:100A4000D8A078D0030E5B5E6B2A33D9D8905E367F
:100A50005D365C366A3618D9020E6C6ED8906A32F2
:100A60005C325D325E326C2EF9D723D9040E6C6E87
:100A7000D8905F326032613262326C2EF9D704D97D
:100A800018D961C062F060C061F05FC060F05F6A59
:100A9000FBD80FD960C062F05FC061F05F6A606A26
:100AA000F3D86AB6C4D75B5205E15E2A5D2A5C2A98
:100AB0006A2A40D0D8905E365D365C366A365B0670
:100AC000B6D75B1E5B2A7F0E5B266B6A040E6C6ECC
:100AD000D8905E365D365C366A366C2EF9D7040ED9
:100AE0005B26050E5B5C32E3E4D8D8905E365D365B
:100AF0005C366A36D8905E365D365C366A36C4D867
:100B0000D8905E365D365C366A366B2A030E6C6EA4
:100B1000D8906A325C325D325E326C2EF9D7030EA9
:100B20005B5E6AA8DED7D8906A325C325D325E3294
:100B30005B06D7D75B1E5B2A030E5B266B28695EBC
:100B4000D8A0696A010E03D0020E01D0000E646EB7
:100B500068BE09D069BE07D0695205E0200E6D6EEF
:100B60002ADF692EFBD768AC03D02D0E6D6E23DF14
:100B700068AE09D069BE07D0695205E0300E6D6ECF
:100B80001ADF692EF9D7689E689C64A007D06BC0F5
:100B900064F06BC066F06828662626D064A202D096
:100BA00068286B6E6852D8B46DD02E0E6D6E03DF60
:100BB0006BC067F067066850675C02E368C067F067
:100BC000675205E0300E6D6EF6DE672EFBD76BC008
:100BD0006CF068286C5ED8B075D05B066828666ECD
:100BE0006B50665E66C064F06AC063F05B5005E0FF
:100BF000656ED8906332652EFCD7665043E0300EA8
:100C000063246D6ED8DE645005E168523BE02E0E21
:100C10006D6ED1DE6406660635E05B5005E0656EFC
:100C2000D8906336652EFCD763506A5E6AC05FF069
:100C30005CC060F05DC061F05EC062F0D8905E366E
:100C40005D365C366A36D8905E365D365C366A361E
:100C500062505E2605E35D2A03E15C2A01E16A2A0F
:100C600061505D2603E35C2A01E16A2A60505C263C
:100C7000D8B06A2A5F506A26D8905E365D365C36F8
:100C80006A36B2D700001ED062505E2605E35D2AA8
:100C900003E15C2A01E16A2A61505D2603E35C2AD4
:100CA00001E16A2A60505C26D8B06A2A5F506A2641
:100CB000000C6AC05FF05CC060F05DC061F05EC0B7
:100CC00062F0000C0000CBEF07F05F50016A5E5C41
:100CD00003E25E50006E0CD0006A080E606E5E3655
:100CE00000365F50005CD8B0006E0136602EF7D73A
:100CF000000C5CC000F05CBE04D05DA40CD0200EE3
:100D000005D0001E002A00C05CF02D0E6D6E53DE73
:100D1000100E5DA65D6E01505CC05EF0640E5F6EED
:100D2000D4DF00C05CF00150300E07E15DB00BD0A5
:100D30005DB609D05DB8200E02D05D965D980126A3
:100D400001C06DF038DE5CC05EF00A0E5F6EBDDF84
:100D500000C05CF00150300E04E15DB606D05DB815
:100D6000200E012601C06DF026DE300E5C265CC030
:100D70006DF021DE000CF86AD09E0D8EEA6AE96AF9
:100D8000C180C182C184C186920E186E0F0E196E89
:100D9000930E1A6E0F0E1B6E940E1C6E0F0E1D6EB0
:100DA000950E1E6E0F0E1F6E960E206E0F0E216E8C
:100DB000800E226E0F0E236E810E246E0F0E256E96
:100DC000820E266E0F0E276E830E286E0F0E296E72
:100DD000840E2A6E0F0E2B6E890E2C6E0F0E2D6E4A
:100DE0008A0E2E6E0F0E2F6E8B0E306E0F0E316E22
:100DF0008C0E326E0F0E336E8D0E346E0F0E356EFE
:100E0000C40E366E0F0E376EC30E386E0F0E396E6F
:100E1000C20E3A6E0F0E3B6EC10E3C6E0F0E3D6E53
:100E2000C00E3E6E0F0E3F6EF20E406E0F0E416E04
:100E3000F10E426E0F0E436EF00E446E0F0E456EB5
:100E40009D0E466E0F0E476E810E486E0F0E496E58
:100E5000810E4A6E400E4B6E4C6A4D6A770E4E6E96
:100E6000400E4F6E300E506E0C0E516E566A576A21
:100E7000586A596AE5EF02F03A50E96E3B50EA6E63
:100E8000EF803A50E96E3B50EA6EC30EEF14EF6EFE
:100E90003C50E96E3D50EA6EF00EEF140809EF6E1B
:100EA0001850E96E19C0EAFF010EEF6E3E50E96E70
:100EB0003F50EA6EEF8E3C50E96E3D50EA6EEF888F
:100EC0003C50E96E3D50EA6EEF8A4650E96E47505D
:100ED000EA6EEF8C4050E96E4150EA6EEF8E405062
:100EE000E96E4150EA6EEF8C1A50E96E1BC0EAFFC2
:100EF000F00EEF6E1C50E96E1DC0EAFFEF6A3C5029
:100F0000E96E3D50EA6EF00EEF140F09EF6E42509D
:100F1000E96E4350EA6EEF9E3A50E96E3B50EA6E3E
:100F2000EF8203EF03F001C05AF055C05EF054C0E9
:100F30005DF053C05CF052C05BF0A8D401C056F025
:100F40005A50200810E05AC05BF057C05CF0F6D44D
:100F500001C058F058C057F056C05BF058C05CF064
:100F600008D501C059F00C0E6D6E25DD560E6D6E64
:100F700022DD3A0E6D6E1FDD55C05EF054C05DF08F
:100F800053C05CF052C05BF0626A616A010E606E31
:100F9000840E5F6E31D5090E5B6E5B505AEC00F02B
:100FA0005B2A006E00C06DF006DD0E0E5B5CF5E1A5
:100FB0005AC06DF000DD0A0E6D6EFDDC500E6D6ED8
:100FC000FADC3A0E6D6EF7DC56C05CF0180E5D6E02
:100FD00090DE250E6D6EEFDC090E6D6EECDC440EBE
:100FE0006D6EE9DC3A0E6D6EE6DC59C05CF0180EF1
:100FF0005D6E7FDE090E6D6EDEDC4E0E6D6EDBDC2F
:101000003A0E6D6ED8DC58C05CF0180E5D6E71DE65
:0C101000140E6E6E83EC02F07FD703001C
:020000040030CA
:0E00000000220F0E000181000FC00FE00F4024
:00000001FF
;PIC18F452
